:100000000C9435000C945D000C945D000C941E0261
:100010000C9428020C945D000C9414020C945D0066
:100020000C945D000C945D000C945D000C945D00DC
:100030000C945D000C945D000C945D000C945D00CC
:100040000C9406020C945D000C945D000C945D0011
:100050000C945D000C945D000C945D000C945D00AC
:100060000C945D000C945D00050811241FBECFEFB9
:10007000D4E0DEBFCDBF11E0A0E0B1E0ECE2F1E101
:1000800002C005900D92A43AB107D9F722E0A4EA84
:10009000B1E001C01D92A73BB207E1F710E0C5E354
:1000A000D0E004C02197FE010E946508C433D10747
:1000B000C9F70E940B070C9494080C9400008091DF
:1000C0002902882341F069E272E085EA91E00E940A
:1000D000A40681E0089580E008958091320288238B
:1000E00041F062E372E085EA91E00E94A40682E0BA
:1000F000089580E008958F929F92AF92BF92CF9221
:10010000DF92EF92FF9285EA91E00E94740686E802
:1001100092E00E9481044B015C012AE030E040E063
:1001200050E00E94150869017A0188EEC81683E044
:10013000D806E104F1042CF460E285EA91E00E9423
:100140008106C501B40124E630E040E050E00E94A1
:100150001508BA01A90185EA91E00E94CD066EE278
:1001600085EA91E00E948106C701B6012AE030E0ED
:1001700040E050E00E941508AB01BC0185EA91E027
:100180000E94CD0660E285EA91E00E94810680919E
:10019000A00280FF18C063E585EA91E00E94810615
:1001A00064E585EA91E00E94810685EA91E00E947B
:1001B000360681E0FF90EF90DF90CF90BF90AF9038
:1001C0009F908F9008956DE485EA91E00E948106EA
:1001D00060E2E7CF85EA91E00E9474066BE671E089
:1001E00085EA91E00E94A406FFCF0F931F93882316
:1001F00009F48BC01092B1021092B2021092B002B8
:100200001092AF02E091B402EE0FEE0FE093B40251
:1002100083B190E034E0959587953A95E1F7837046
:100220009927E82BE093B402EF70F0E0EC5AFE4F10
:1002300080819091B302890F8093B302882331F1BA
:1002400080FD24C01092B302082E000C990B9595E6
:1002500087958F3F09F463C08130C1F44091AD02AE
:100260005091AE0240332AE2520780F4465F5F4F5E
:100270005093AE024093AD0270E060E086E892E0F9
:100280000E9497051092B1021092B20296B180912D
:10029000B502880F92FB992790F9892B8093B502BC
:1002A000883F41F46091AD027091AE0280E090E031
:1002B0000E947108109280008091B202811154C096
:1002C0001092B0021092AF02E091B102F0E0EE0F96
:1002D000FF1FE050FF4F80819181892B11F4109214
:1002E000B102E091B10281E08E0F8093B102F0E0A3
:1002F000EE0FFF1FE050FF4F0190F081E02D0995B8
:10030000813071F58093B202D7CF8091AF02909186
:10031000B00201969093B0028093AF0273CF4091E8
:10032000AD025091AE028A0130E020E0809195024A
:1003300090919602807C9927892B69F48EE292E253
:10034000A0E0B0E080179107A207B3070CF09ECFA2
:100350004A5051098DCF80EB9DE1A0E0B0E0F2CF93
:10036000823009F0A9CFCECF8230F1F0833039F15D
:10037000813049F48091AF029091B0028039914070
:1003800010F01092B20281E8809380008AE080939E
:1003900081008091AC02809389008091AB028093B0
:1003A00088001F910F9108958091AF029091B00243
:1003B0008837910540F383E08093B202E4CF8091C7
:1003C000AF029091B0024597F0F28091E7019091D1
:1003D000E601891748F01092E70185EA91E00E9452
:1003E00036061092B2020DC08F5F8093E70185EA56
:1003F00091E00E9436069091E7018091E6019817FE
:1004000080F71092B0021092AF02BDCF1F920F92F0
:100410000FB60F9211248F9380EC86BD8F910F90B1
:100420000FBE0F901F9018951F920F920FB60F924C
:1004300011240F900FBE0F901F9018951F920F92CE
:100440000FB60F9211240F900FBE0F901F901895AA
:100450001F920F920FB60F9211240F900FBE0F90A4
:100460001F90189584E98093BC0008951092B900FC
:100470008CE08093B80084EA8093BC008091BC003B
:1004800087FFFCCF8091B900887F883029F084E90C
:100490008093BC0080E0089581E00895FB0180E036
:1004A00024E8841779F091919093BB008F5F20939B
:1004B000BC009091BC0097FFFCCF9091B900987F51
:1004C000983279F30895FB0180E024EC942F981B77
:1004D0009230A0F02093BC009091BC0097FFFCCF1D
:1004E0009091B900987F903521F094E99093BC00E9
:1004F00008959091BB0091938F5FE8CF94E890931B
:10050000BC009091BC0097FFFCCFEFCFEF92FF9221
:100510000F931F93CF93DF938C01C62F7A01D22FB5
:100520000E94360281110BC084E98093BC0080E0F8
:10053000DF91CF911F910F91FF90EF900895CC0F15
:10054000C093BB0084E88093BC008091BC0087FF0F
:10055000FCCF8091B900887F883131F74D2FB701EA
:10056000C8010E944E0294E99093BC00E1CFEF9243
:10057000FF920F931F93CF93DF938C01C62F7A01C5
:10058000D22F0E94360281110BC084E98093BC00F7
:1005900080E0DF91CF911F910F91FF90EF90089530
:1005A000CC0FC160C093BB0084E88093BC008091F5
:1005B000BC0087FFFCCF8091B900887F803429F789
:1005C0004D2FB701C801DF91CF911F910F91FF907F
:1005D000EF900C9463020F931F93CF93DF93EC0182
:1005E000CA01892F9927869586958695843091052D
:1005F00009F44FC038F4029798F1DF91CF911F9121
:100600000F9108950597C9F7FE01E356FF4F20812A
:10061000CA01807199272817190689F0842F8071E3
:10062000808381E4FE01DE01A65BBF4F01900D9245
:100630008A95E1F781E4FE0111928A95E9F7FA01C2
:10064000EE0FFF1FEE71FF271D3009F410E0EC0FD5
:10065000FD1F10830D3009F400E0018318A2CDCFF7
:10066000FE01E557FF4FCA0125E0969587952A952B
:10067000E1F78F718083440F551F46705527C40FD3
:10068000D51FFE01EF5BFF4F1083CE5BDF4F08836A
:10069000B4CFFE01E356FF4F6081CA0180719927F4
:1006A0006817190689F0842F8071808381E4FE0128
:1006B000DE01A65BBF4F01900D928A95E1F781E4C0
:1006C000FE0111928A95E9F7FA01EE0FFF1FEE0F76
:1006D000FF1FEC73FF273D3009F430E0EC0FFD1FE6
:1006E00030832D3009F420E021831D3009F410E01F
:1006F00012830D3009F400E00383C05CDF4F1882E1
:100700007CCF60E37AE280E090E00895FC0173839F
:10071000628308950895089584E691E00895FC01A8
:1007200087859089807C9927892B29F46EE272E273
:1007300080E090E0089560EB7DE180E090E0089536
:10074000FC01828D81700895FC01818D08958430B3
:10075000F8F08370846093E0892795B1907F9C6066
:10076000982B95B9262F20682BB995B1907F892BAE
:1007700085B982E08A95F1F700C06F776BB982E0A6
:100780008A95F1F700C02BB985B18C6085B90895C1
:100790008860E1CFFC01EF5BFF4F29E0DF011D9294
:1007A0002A95E9F7399621E4DF01322F1D923A9517
:1007B000E9F7DC011D922A95E9F7EF5BFF4F2FEF78
:1007C0002083319626E0DF011D922A95E9F73696BF
:1007D0002BE0DF011D922A95E9F783569F4FFC011C
:1007E000108208950F931F93CF93DF93CDB7DEB799
:1007F000A0970FB6F894DEBF0FBECDBF8C0120E2EC
:10080000AE014F5F5F4F60E10E94B702FE0131967B
:10081000D8015996A8014B5D5F4F9D01819191913F
:100820009827892798278D939D93A417B507B1F72B
:10083000DE011D96F80135968D919D9198278927A7
:10084000982781939193E217F307B1F7A0960FB61B
:10085000F894DEBF0FBECDBFDF91CF911F910F91F6
:100860000895CF93DF93EC010E94F2038D819E8166
:100870009F708234924079F42F81388586E03695D6
:1008800027958A95E1F72F7033272850310981E0A9
:100890002230310508F080E0DF91CF9108950F9369
:1008A0001F93CF93DF93EC018A819B81892B09F100
:1008B000CE010E94F2038A8D881F8827881F90919D
:1008C000B602992329F09130C9F01092B60211C0F6
:1008D000882379F081E08093B6020BA11CA129A1A5
:1008E0003AA14F8D58A16D8D7E8D8A819B810E948A
:1008F000EB02DF91CF911F910F9108958111F9CFF4
:10090000E4CFCF92DF92EF92FF92CF93DF93EC018F
:100910000E94F203AB8DBC8DB3708F859889807374
:10092000992724E130E0009731F02AE030E0809709
:1009300011F425E030E00E9434086B017C01E8816D
:10094000F9810684F785E02DCE0109956C0D7D1D9A
:100950008E1D9F1DDF91CF91FF90EF90DF90CF9084
:100960000895CF93DF93CDB7DEB72C970FB6F894E9
:10097000DEBF0FBECDBFDC011996FE013196BC0172
:100980006B5E7F4FAF012D913D9132272327322798
:1009900021933193A617B707B1F72CE060E10E94CD
:1009A00086022C960FB6F894DEBF0FBECDBFDF9146
:1009B000CF910895CF93DF93EC01449843988FEC47
:1009C00097E00197F1F700C00000439A8FEC97E0A1
:1009D0000197F1F700C00000449ACE010E94F20393
:1009E0008B899C8990689C8B8B8BCE010E94B10473
:1009F0009FEF24E38CE0915020408040E1F700C05D
:100A00000000CE010E94F20381E090E09A8789877E
:100A10008D859E85806C98619E878D878F8598894E
:100A2000807F80619461988B8F8789899A898827D4
:100A300083639A8B898BCE010E94B1049FE72FEAD2
:100A400082E0915020408040E1F700C00000DF913B
:100A5000CF9108951F93CF93DF93EC01162F0E943F
:100A6000F20389859A85112349F090629A878987D4
:100A7000CE01DF91CF911F910C94B1049F7DF6CFF1
:100A80001F93CF93DF93EC01162F0E94F203898509
:100A90009A85112349F09F779A878987CE01DF9144
:100AA000CF911F910C94B1049068F6CFCF93DF9350
:100AB000EC010E94F20389859A8581649A8789876F
:100AC000CE01DF91CF910C94B104CF93DF93EC0171
:100AD0000E94F20389859A858F7B81609A87898736
:100AE000CE010E94B1048A819B81009721F0DF91A1
:100AF000CF910C94CA03DF91CF910895CF93DF93E8
:100B0000EC010E94F203898D9A8D96FF0CC08B85B3
:100B10009C859F779C878B87CE010E94B10481E0E2
:100B2000DF91CF91089580E0FBCF0C947E05CF92AA
:100B3000DF92EF92FF92CF93DF93EC016A017B018A
:100B4000E881F9810684F785E02D0995C616D70658
:100B5000E806F9064CF4E881F9810684F785E02D72
:100B6000CE0109956B017C01E881F9810088F1894A
:100B7000E02DCE0109956C157D058E059F054CF481
:100B8000E881F9810088F189E02DCE0109956B019A
:100B90007C01E881F9810684F785E02DCE01099575
:100BA000A7019601261B370B480B590BCA01B90147
:100BB0002F853889207333272115310569F12032BB
:100BC000310539F12AE030E050E040E00E9415089C
:100BD0006901CE010E94F2032B853C8522273C7FD0
:100BE0002C293D2930683C872B87CE010E94B10417
:100BF000CE010E947E058823D9F38A819B810097CC
:100C000071F0DF91CF91FF90EF90DF90CF900C9437
:100C1000CA0325E030E0D8CF24E130E0D5CFDF9122
:100C2000CF91FF90EF90DF90CF9008951F93CF93D7
:100C3000DF93EC01162F0E94F2038F859889807F45
:100C4000212F103108F02FE0822B988B8F87898518
:100C50009A85111109C09F7B9A878987CE01DF9100
:100C6000CF911F910C94B1049064F6CFBF92CF92B4
:100C7000DF92EF92FF920F931F93CF93DF936C015C
:100C8000D0E0C0E08C010E5B1F4F7C0181E4E80ED8
:100C9000F11CBC2EF80180818C0F9D2F911DF70156
:100CA00020812817190669F064F0C830D10591F049
:100CB0008C0D9D1DFC0160818C2F0E94A703219645
:100CC000E8CFF8E0BF1631F060E28B2D0E94A70359
:100CD000B394F7CFDF91CF911F910F91FF90EF90D9
:100CE000DF90CF90BF90089521E4FC0111922A95E6
:100CF000E9F7FC01EF5BFF4F1082319610820C94F4
:100D00003606DC01AF5BBF4F2C91203458F0FC015C
:100D10009C01205C3F4F41814193E217F307D9F7D3
:100D200020E42C932FE9260F2A3108F46052EC912D
:100D300021E02E0F2C93E80FF92FF11D6083820F15
:100D4000911DFC0110820895CF93DF93DC01AF5B0E
:100D5000BF4F1C92FB015C91252F30E0309789F04A
:100D60004191442371F0503460F46FE9640F6A31AB
:100D700008F440525F5F5C93280F391FE9014883F4
:100D8000EACF280F391FF9011082FC01EE5BFF4FFB
:100D90001082DF91CF910C943606CF92DF92EF92C2
:100DA000FF92CF93DF93EC016A017B01F7FE0BC04A
:100DB0006DE20E948106F094E094D094C094C11C2E
:100DC000D11CE11CF11C8AE0C816D104E104F10435
:100DD0006CF0C701B6012AE030E040E050E00E942C
:100DE0001508BA01A901CE010E94CD06C701B601BE
:100DF0002AE030E040E050E00E941508605DCE013E
:100E00000E948106CE01DF91CF91FF90EF90DF909D
:100E1000CF900C94360614BE15BE8AE387B98FEFC7
:100E20008AB98FE084B98FE388B980E88BB98CE305
:100E300085B984E080936C0080E380936B0083E04D
:100E40008093680083B7817F83BF83B7816083BF4E
:100E500088E1809360008FE48093600085E085BD29
:100E600081E080936E0080EC86BD85EA91E00E946F
:100E70007406789464E771E085EA91E00E94A40624
:100E800086E892E00E943104811101C0FFCF85EA1B
:100E900091E00E94740686E892E00E94DA0480E005
:100EA00090E00E946B089093AE028093AD02813374
:100EB0009A4230F080E39AE29093AE028093AD02C2
:100EC0004091AD025091AE0270E060E080919502D9
:100ED00090919602807C9927892B09F041C08EE27F
:100EE00092E2A0E0B0E0481759076A077B0724F4B4
:100EF0009093AE028093AD0288EE91E090938902C8
:100F00008093880260E086E892E00E942A0561E012
:100F100086E892E00E944005309927C0C0E0D0E00A
:100F200087E4F82E01E81AE08895A895F092600011
:100F3000C130F9F008F443C0C330E9F160E086E85D
:100F400092E00E94160610928000419A86E892E094
:100F50000E94560585EA91E00E947406C3E0E4CF42
:100F600080EB9DE1A0E0B0E0BECFC2E0D8CFC2E010
:100F7000DBCF3099FCCFD11118C086E892E00E94F7
:100F80004F04E0919F02EC3408F0EBE4F0E0E85FFE
:100F9000FE4F808190E09093AC028093AB02109260
:100FA00089008091AB0280938800DF5FD37080E07E
:100FB0000E94F500B9CF3099B7CFC0E0B5CF86E831
:100FC00092E00E9465054091AD025091AE0270E042
:100FD00060E086E892E00E949705419800938000C7
:100FE000109381008091AC02809389008091AB02C4
:100FF0008093880081E00E94F50063E086E892E03B
:101000000E941606DC2FC1E08FCFE6E8F2E01382E3
:10101000128280E891E09183808388EE91E00E94C3
:10102000CA0385EA91E00C947406052E97FB1EF422
:1010300000940E942C0857FD07D00E94430807FC2B
:1010400003D04EF40C942C08509540953095219582
:101050003F4F4F4F5F4F08959095809570956195E4
:101060007F4F8F4F9F4F0895A29FB001B39FC00144
:10107000A39F700D811D1124911DB29F700D811DC4
:101080001124911D0895A1E21A2EAA1BBB1BFD017C
:101090000DC0AA1FBB1FEE1FFF1FA217B307E40757
:1010A000F50720F0A21BB30BE40BF50B661F771FAF
:1010B000881F991F1A9469F760957095809590958F
:1010C0009B01AC01BD01CF010895EE0FFF1F0590FC
:1010D000F491E02D0994A8E1B0E042E050E00C94D6
:1010E00078080E948608272F0C948708DC01CB0122
:1010F000FC01F999FECF06C0F2BDE1BDF89A319628
:1011000000B40D9241505040B8F70895262FF99938
:10111000FECF1FBA92BD81BD20BD0FB6F894FA9ADA
:0C112000F99A0FBE01960895F894FFCFD5
:10112C007B005F006D00000000000000000000006C
:10113C000101010102020203030304040506060770
:10114C000808090A0B0C0D0E0F10111213141516AA
:10115C0017191A1B1C1D1E20212223252627282A7D
:10116C002B2C2E2F3132343637393B3D3F40434404
:10117C0046484A4B00FF0100010000FFFF00000140
:10118C000001FF00536934373033005075726576B7
:10119C00697274004E4F524144494F0000000000E8
:1011AC008C03DA04970581049505A00331048F03A1
:1011BC008103A4032A054005560565054F048603E3
:0411CC008A038B0304
:00000001FF
