:100000000C9435000C945D000C945D000C94260655
:100010000C9430060C945D000C941C060C945D004E
:100020000C945D000C945D000C945D000C945D00DC
:100030000C945D000C945D000C945D000C945D00CC
:100040000C940E060C945D000C945D000C945D0005
:100050000C945D000C945D000C945D000C945D00AC
:100060000C945D000C945D00360711241FBECFEF89
:10007000D4E0DEBFCDBF12E0A0E0B1E0E2E9F2E102
:1000800002C005900D92AE30B107D9F713E0AEE093
:10009000B2E001C01D92A232B107E1F710E0CAE65A
:1000A000D0E004C02297FE010E941A09C836D10789
:1000B000C9F70E943A060C9447090C9400006CEFB3
:1000C00071E280E090E0089560E37AE280E090E001
:1000D000089580E008950895089508950895089575
:1000E000FC017383628308950895089580E091E090
:1000F0000895FC0187859089807C9070009729F095
:1001000020EB3DE140E050E004C02EE232E240E06E
:1001100050E0B901CA010895FC01218D328D81E0C2
:1001200030FF80E00895FC01818D0895282F237011
:10013000843010F0246001C0286085B193E09227DC
:10014000807F8C60892B85B9262F20682BB985B1DB
:10015000807F892B85B982E08A95F1F700C06F779F
:100160006BB982E08A95F1F700C02BB985B18C603C
:1001700085B908959C012F5B3F4FF90129E0DF010C
:100180001D922A95E9F79C01265B3F4F41E4D90176
:10019000242F1D922A95E9F7DC011D924A95E9F773
:1001A000FC01E557FF4F2FEF20839C0124573F4F61
:1001B000F90126E0DF011D922A95E9F79C012E56F0
:1001C0003F4FF9012BE0DF011D922A95E9F7835695
:1001D0009F4FFC0110820895EF92FF920F931F939F
:1001E000DF93CF93CDB7DEB7A0970FB6F894DEBFFD
:1001F0000FBECDBF8C0160E17E010894E11CF11CB3
:10020000A70120E20E94DB07F701D8015996CE0131
:100210000D96219131913227232732272D933D933B
:10022000E817F907B1F7FE013D96D8011596C70109
:100230008096219131913227232732272D933D93A8
:10024000E817F907B1F7A0960FB6F894DEBF0FBE16
:10025000CDBFCF91DF911F910F91FF90EF90089547
:100260000F931F93CF93DF93EC018A819B810097BB
:1002700021F1CE010E94EC008A8D881F8827881FFB
:1002800090911903992319F09130A9F412C0882391
:10029000A1F081E0809319036D8D7E8D4F8D58A163
:1002A00029A13AA10BA11CA18A819B810E9411085E
:1002B00004C0882311F410921903DF91CF911F918C
:1002C0000F910895CF93DF93EC010E94EC008D8194
:1002D0009E819F7022E08234920779F42F813885C5
:1002E00086E0369527958A95E1F72F703070285073
:1002F000304081E02230310508F080E0DF91CF917D
:100300000895EF92FF920F931F93CF93DF93EC0129
:100310000E94EC002B8D3C8D40E050E0337040702B
:1003200050708F859889807390708132910540F468
:10033000FC01EE0FFF1FE058FE4F6081718102C08B
:100340006AE070E080E090E00E94BC087B018C01D4
:10035000E881F9810684F785E02DCE0109959B019E
:10036000AC012E0D3F1D401F511FB901CA01DF9185
:10037000CF911F910F91FF90EF900895DF93CF934E
:10038000CDB7DEB72C970FB6F894DEBF0FBECDBF4A
:10039000DC011996FE0131969E01235F3F4F4D917E
:1003A0005D9154274527542741935193E217F30752
:1003B000B1F760E1AE014F5F5F4F2CE00E94A307F1
:1003C0002C960FB6F894DEBF0FBECDBFCF91DF9154
:1003D0000895CF93DF93EC010E94EC0089859A8504
:1003E0008F7B81609A878987CE010E94BE018A81B6
:1003F0009B81009711F00E94BA00DF91CF91089580
:10040000CF93DF93EC010E94EC0089859A8581648B
:100410009A878987CE010E94BE01DF91CF9108950E
:100420000F931F93DF93CF930F92CDB7DEB78C015D
:1004300069830E94EC00F8018185928569816623B9
:1004400011F09F7702C09068F80192878187C801F8
:100450000E94BE010F90CF91DF911F910F910895DF
:100460000F931F93DF93CF930F92CDB7DEB78C011D
:1004700069830E94EC00F801818592856981662379
:1004800011F0906202C09F7DF80192878187C801B8
:100490000E94BE010F90CF91DF911F910F9108959F
:1004A000CF93DF93EC01449843988FEC97E001974A
:1004B000F1F700C00000439AAFECB7E01197F1F7F5
:1004C00000C00000449ACE010E94EC008B899C89F8
:1004D00090689C8B8B8BCE010E94BE018FEF94E3C2
:1004E000ACE081509040A040E1F700C00000CE0198
:1004F0000E94EC0081E090E09A8789878D859E8537
:10050000806C98619E878D878F859889807E9B7E81
:1005100080619461988B8F8789899A8980708363C1
:100520009A8B898BCE010E94BE018FE79FEAA2E0E1
:1005300081509040A040E1F700C00000DF91CF91D2
:100540000895CF93DF93EC010E94EC00898D9A8D82
:1005500096FF0AC08B859C859F779C878B87CE01F1
:100560000E94BE0181E001C080E0DF91CF9108953B
:100570000E94A1020895CF92DF92EF92FF920F9313
:100580001F93CF93DF93EC017A018B01E881F9810E
:100590000684F785E02D0995E616F7060807190782
:1005A0004CF4E881F9810684F785E02DCE010995A8
:1005B0007B018C01E881F9810088F189E02DCE0171
:1005C00009956E157F05800791074CF4E881F98144
:1005D0000088F189E02DCE0109957B018C01E8812D
:1005E000F9810684F785E02DCE0109956701780130
:1005F000C61AD70AE80AF90A8F859889807390701D
:100600008132910540F4FC01EE0FFF1FE058FE4FD0
:100610000081118102C00AE010E0CE010E94EC00CE
:10062000980140E050E0C701B6010E94DB088B85CD
:100630009C8580709C7F822B932B90689C878B87F6
:10064000CE010E94BE01CE010E94A1028823D9F3EF
:100650008A819B81009711F00E94BA00DF91CF91AF
:100660001F910F91FF90EF90DF90CF9008950F931F
:100670001F93DF93CF930F92CDB7DEB78C0160311C
:1006800008F06FE0C80169830E94EC006981862F41
:1006900090E0F80127853089207F822B932B908B67
:1006A000878781859285662311F49F7B02C09064C1
:1006B000F80192878187C8010E94BE010F90CF91F7
:1006C000DF911F910F910895BF92CF92DF92EF9229
:1006D000FF920F931F93CF93DF938C01C0E0D0E084
:1006E00042E4E42EF12CE80EF91E31E4C32ED12CA5
:1006F000C80ED91EBC2ED7018C91FE01E80FF11D4A
:10070000D6012C9130E0E217F30784F4C830D1050C
:1007100069F0E00FF11F8C2F60810E9496002196F6
:10072000E9CF8B2D60E20E949600B394BB2DB830C8
:10073000C4F3DF91CF911F910F91FF90EF90DF9065
:10074000CF90BF9008950F931F93CF93DF93EC0149
:10075000CE5BDF4F28818C010F5B1F4FF80130818A
:10076000231728F018820E94640381E00BC02F5FDA
:1007700028830E94640381E02881F8019081291771
:1007800008F480E0DF91CF911F910F91089521E44B
:10079000DC011D922A95E9F7FC01EF5BFF4F108207
:1007A000FC01EE5BFF4F10820E9464030895FC0180
:1007B000EF5BFF4F2081203458F0FC0120E43181B1
:1007C00031932150E1F7FC01EF5BFF4F20E42083E0
:1007D000262F21562A3108F46052FC01EF5BFF4FAF
:1007E0002081DC01A20FB11D6C932F5F2083820F4B
:1007F000911DFC0110820895CF93DF93DC01AF5B64
:10080000BF4F1C92E62FF72F07C02052EC01C30FF9
:10081000D11D28833F5F3C93309759F021912223CB
:1008200041F03C91303428F4422F41564A3168F36C
:10083000EDCFFC01EF5BFF4F2081FC01E20FF11DCA
:100840001082FC01EE5BFF4F10820E946403DF9177
:10085000CF91089580918102882341F085ED92E047
:1008600061E872E00E94FC0382E0089580E0089550
:1008700080917802882341F085ED92E068E772E08C
:100880000E94FC0381E0089580E00895EF92FF92BA
:100890000F931F93CF93DF93EC017A018B0177FFC6
:1008A0000BC06DE20E94D70310950095F094E09480
:1008B000E11CF11C011D111D8AE0E816F10401057F
:1008C00011056CF0C801B7012AE030E040E050E0CB
:1008D0000E94DB08CE01BA01A9010E944604C801AA
:1008E000B7012AE030E040E050E00E94DB08605DA4
:1008F000CE010E94D703CE010E946403DF91CF9105
:100900001F910F91FF90EF900895EF92FF920F9338
:100910001F9385ED92E00E94C70382E192E00E945E
:1009200081012AE030E040E050E00E94DB087901DC
:100930008A01283E83E0380780E0480780E05807B6
:100940002CF485ED92E060E20E94D703C801B70164
:100950002AE030E040E050E00E94DB087B018C019F
:1009600085ED92E0BA01A9010E94460485ED92E06E
:100970006EE20E94D70385ED92E0B801A7010E94C4
:10098000460485ED92E060E20E94D70380912B023D
:1009900090912C0290FF14C085ED92E063E50E94D7
:1009A000D70385ED92E064E50E94D70385ED92E0E0
:1009B0000E94640381E01F910F91FF90EF900895D2
:1009C00085ED92E06DE40E94D70385ED92E060E250
:1009D000EBCFFC0181E8809380008AE08093810066
:1009E0008181809389008081809388000895FC0133
:1009F0006C3408F06BE4A62FB0E0AE53BE4F8C9180
:100A000080831182109289008081809388000895EC
:100A100085ED92E00E94C70385ED92E067E071E00A
:100A20000E94FC03FFCF882349F01092200310920C
:100A3000210310921E0310921D0309C080911D0313
:100A400090911E03019690931E0380931D03809145
:100A50001B03880F880F80931B03E3B1F0E0A4E031
:100A6000F595E795AA95E1F7E370E82BE0931B0372
:100A7000F0E0EF70F070E059FE4F808190911A0322
:100A8000890F80931A03882309F44EC0992787FDA4
:100A9000909580FD49C010921A03959587958F3FD8
:100AA000A9F0813009F040C040910E0250910F0230
:100AB000CA01A0E0B0E080332AE2920720E0A2075A
:100AC00020E0B2078CF5465F5F4F20C060910E02B8
:100AD00070910F029B0140E050E0809121029091C3
:100AE0002202807C9070009729F080EB9DE1A0E0CD
:100AF000B0E004C08EE292E2A0E0B0E0821793077B
:100B0000A407B5078CF4AB014A50504050930F0234
:100B100040930E0260E070E082E192E00E94BB022E
:100B2000109220031092210386B190E0959587954D
:100B300095958795817090911C03990F982B9093B0
:100B40001C03983F41F460910E0270910F0280E007
:100B500090E00E9424091092800028C010921E0389
:100B600010921D03E0912003F0E0EE0FFF1FE85EFE
:100B7000FE4F80819181009711F4109220038091A3
:100B80002003E82FF0E0EE0FFF1FE85EFE4F01901C
:100B9000F081E02D8F5F80932003099580931F03E0
:100BA000813011F0823011F4809321038091210370
:100BB0008823A1F2823079F08330C1F0813049F589
:100BC00080911D0390911E0321E08039920708F166
:100BD000109221031EC080911D0390911E0388373F
:100BE0009105B8F083E08093210313C080911D0329
:100BF00090911E038531910560F085ED92E00E9491
:100C0000A303882311F01092210310921E03109267
:100C10001D0380E192E00E94E90408951F920F9263
:100C20000FB60F9211248F9380EC86BD8F910F9099
:100C30000FBE0F901F9018951F920F920FB60F9234
:100C400011240F900FBE0F901F9018951F920F92B6
:100C50000FB60F9211240F900FBE0F901F90189592
:100C60001F920F920FB60F9211240F900FBE0F908C
:100C70001F901895CF93DF9314BE15BE8AE387B9F2
:100C80008FEF8AB98FE084B98FE388B980E88BB998
:100C90008CE385B984E080936C0080E380936B00E3
:100CA00083E08093680083B7817F83BF83B78160CF
:100CB00083BF8091600088618093600088EE80939C
:100CC000600085E085BD81E080936E0080EC86BD8C
:100CD00085ED92E00E94C703789485ED92E060E193
:100CE00071E00E94FC0382E192E00E94620188238D
:100CF00009F4FFCF85ED92E00E94C70382E192E004
:100D00000E94500280E090E00E941E0990930F0222
:100D100080930E02A0E0B0E081332AE2920720E047
:100D2000A20720E0B20734F080E39AE290930F022A
:100D300080930E0220910E0230910F0240E050E0AD
:100D40006091210270912202607C707061157105C2
:100D500029F080EB9DE1A0E0B0E004C08EE292E2D9
:100D6000A0E0B0E0281739074A075B0784F4611553
:100D7000710529F080EB9DE1A0E0B0E004C08EE2B7
:100D800092E2A0E0B0E090930F0280930E0287E31E
:100D900092E0909315028093140282E192E060E069
:100DA0000E94300282E192E061E00E941002309BDA
:100DB00002C0C2E059C0C0E057C0C2E001C0C0E0FC
:100DC0008895A89580916000806480936000C13010
:100DD00029F0C13068F1C330C9F414C03099EDCFA7
:100DE000DD2351F482E192E00E94300180E192E043
:100DF00060912B020E94F704DF5FD37080E00E94B5
:100E00001305DECF86B180FFDACFDACF82E192E040
:100E100060E00E94370310928000419A82E192E0E4
:100E20000E94000285ED92E00E94C703C3E0C8CF94
:100E300082E192E00E94E90140910E0250910F027E
:100E400060E070E082E192E00E94BB02419880E1A4
:100E500092E00E94E90481E00E94130582E192E0A1
:100E600063E00E943703C1E0D0E0AACF10921502E0
:100E70001092140284E291E0909313028093120284
:100E800087E392E00E94BA0085ED92E00E94C703DA
:100E9000089584E98093BC0008951092B9008CE015
:100EA0008093B80084EA8093BC008091BC0087FFE7
:100EB000FCCF8091B900887F883029F084E9809345
:100EC000BC0080E0089581E00895862F972FFC01F3
:100ED00080E024E80FC091919093BB008F5F209336
:100EE000BC009091BC0097FFFCCF9091B900987F17
:100EF000983211F4481779F70895E62FF72F24EC6C
:100F000013C02093BC009091BC0097FFFCCF909140
:100F1000B900987F903521F094E99093BC00089532
:100F200041508091BB0081938E2F861B423048F741
:100F300094E89093BC009091BC0097FFFCCF94E99B
:100F40009093BC000895EF92FF920F931F93DF934D
:100F5000CF9300D0CDB7DEB77C018A012A836983A5
:100F60000E944D072A816981882379F0660F60937A
:100F7000BB0084E88093BC008091BC0087FFFCCF5D
:100F80008091B900887F883129F084E98093BC0082
:100F900080E008C0C701B801422F0E94650794E9AC
:100FA0009093BC000F900F90CF91DF911F910F9104
:100FB000FF90EF900895EF92FF920F931F93DF93AE
:100FC000CF9300D0CDB7DEB77C018A012A83698335
:100FD0000E944D072A816981882381F0660F616034
:100FE0006093BB0084E88093BC008091BC0087FFC5
:100FF000FCCF8091B900887F803429F084E9809308
:10100000BC0080E005C0C701B801422F0E947D07E7
:101010000F900F90CF91DF911F910F91FF90EF9064
:1010200008950F931F93BA01672F772766956695EA
:1010300066956430710541F16530710528F46230C0
:10104000710508F096C005C06530710509F091C0C2
:101050005EC0FC01E557FF4F9A01207E3370A5E08A
:1010600036952795AA95E1F7208343705070440F79
:10107000551F480F591FFA01EF5BFF4F10834E5B5E
:101080005F4FDA010C9375C0DA01A071B070FC01FA
:10109000E356FF4F608170E0A617B70789F0642F11
:1010A00060716083DC01A65BBF4FFC0161E40190CD
:1010B0000D926150E1F761E4DC011D926A95E9F758
:1010C0004F705070440F551F440F551F3D3009F4A9
:1010D00030E0FC01E40FF51F30832D3009F420E0EF
:1010E000FC01E40FF51F21831D3009F410E0FC0121
:1010F000E40FF51F12830D3009F400E0480F591F6B
:10110000FA010383805C9F4FDC011C9232C0BA015C
:1011100060717070FC01E356FF4F208130E0621770
:10112000730789F0242F20712083DC01A65BBF4F59
:10113000FC0121E401900D922150E1F721E4DC0152
:101140001D922A95E9F74F705070440F551F1D30BE
:1011500009F410E0FC01E40FF51F10830D3009F4D1
:1011600000E0480F591FFA010183DC0190961C92A0
:1011700090971F910F910895629FD001739FF00186
:10118000829FE00DF11D649FE00DF11D929FF00D17
:10119000839FF00D749FF00D659FF00D9927729F4E
:1011A000B00DE11DF91F639FB00DE11DF91FBD01D9
:1011B000CF011124089597FB092E05260ED057FD67
:1011C00004D014D00AD0001C38F4509540953095C6
:1011D00021953F4F4F4F5F4F0895F6F790958095BB
:1011E000709561957F4F8F4F9F4F0895A1E21A2E02
:1011F000AA1BBB1BFD010DC0AA1FBB1FEE1FFF1FBB
:10120000A217B307E407F50720F0A21BB30BE40B0A
:10121000F50B661F771F881F991F1A9469F7609551
:101220007095809590959B01AC01BD01CF0108950B
:10123000EE0FFF1F0590F491E02D0994A8E1B0E0B6
:1012400042E050E00C942B090E943909272F0C949E
:101250003A09DC01CB01FC01F999FECF06C0F2BDD1
:10126000E1BDF89A319600B40D9241505040B8F764
:101270000895262FF999FECF1FBA92BD81BD20BDDA
:101280000FB6F894FA9AF99A0FBE01960895F89459
:02129000FFCF8E
:101292005369343730330050757265766972740061
:1012A2004E4F524144494F00850438042A0400003D
:1012B2000000000076005002BB028101B8028C00DF
:1012C2006201790064009300300210020002E90119
:1012D2003001700074007500000000000805080568
:1012E200080508050805080508055F00640069008F
:1012F2006B006C006D006E006F0070007400750072
:1013020000FF0100010000FFFF0000010001FF00DB
:1013120014000A000A000A000A000A000A000A0071
:101322000A000A000A000A000A000A000A000A006B
:101332000A000A000A000A000A000A000A000A005B
:101342000A000A000A000A000A000A000A000A004B
:10135200050000000000000000000101010102027E
:10136200020303030404050606070808090A0B0C16
:101372000D0E0F1011121314151617191A1B1C1D1E
:101382001E20212223252627282A2B2C2E2F3132DC
:0E139200343637393B3D3F40434446484A4BD2
:00000001FF
